:020000040800F2
:1000000000000220C1170008491700084B1700081C
:100010004D1700084F170008511700080000000096
:10002000000000000000000000000000531700085E
:10003000551700080000000057170008591700085E
:1000400011180008111800081118000811180008EC
:1000500011180008111800081118000811180008DC
:1000600011180008111800081118000811180008CC
:1000700011180008111800081118000811180008BC
:1000800011180008111800081118000811180008AC
:10009000111800081118000811180008111800089C
:1000A000111800081118000811180008111800088C
:1000B0006917000811180008111800081118000825
:1000C000111800081118000811180008111800086C
:1000D000111800081118000811180008111800085C
:1000E000111800081118000811180008111800084C
:1000F000111800081118000811180008111800083C
:10010000111800081118000811180008111800082B
:10011000111800081118000811180008111800081B
:10012000111800081118000811180008111800080B
:10013000111800080000000000000000111800085D
:1001400011180008111800081118000811180008EB
:1001500011180008111800081118000811180008DB
:1001600011180008111800081118000811180008CB
:1001700011180008111800081118000800000000EC
:10018000000000001118000800000000000000003E
:1001900011180008000000000000000011180008FD
:1001A000000000000000000000000000111800081E
:1001B000111800081118000811180008111800087B
:0401C000111800080A
:1001C40010B5054C237833B9044B13B10448AFF38D
:1001D40000800123237010BD0C00002000000000EB
:1001E4005C18000808B5034B1BB103490348AFF37F
:1001F400008008BD00000000100000205C1800080A
:1002040053B94AB9002908BF00281CBF4FF0FF3179
:100214004FF0FF3000F07AB9ADF1080C6DE904CE6F
:1002240000F006F8DDF804E0DDE9022304B07047CD
:100234002DE9F0478C460D460446089E002B51D10B
:100244008A4217466DD9B2FA82FEBEF1000F0BD076
:10025400CEF1200C01FA0EF520FA0CFC02FA0EF78E
:100264004CEA050C00FA0EF44FEA174A250CBCFBC5
:10027400FAF81FFA87F90AFB18CC45EA0C4508FB83
:1002840009F3AB420AD9ED1908F1FF3280F023815A
:10029400AB4240F22081A8F102083D44ED1AA4B219
:1002A400B5FBFAF00AFB105544EA054400FB09F9D2
:1002B400A14509D9E41900F1FF3380F00A81A14571
:1002C40040F2078102383C44A4EB090440EA0840A8
:1002D4000021002E61D024FA0EF4002334607360F0
:1002E400BDE8F0878B4207D9002E54D0002186E860
:1002F40021000846BDE8F087B3FA83F1002940F0F5
:100304008E80AB4202D3824200F2FA80841A65EBFB
:1003140003050120AC46002E3FD086E81010BDE84E
:10032400F08712B90127B7FBF2F7B7FA87FEBEF1DF
:10033400000F34D1EB1B3A0C1FFA87FC0121B3FBED
:10034400F2F8250C02FB183345EA03450CFB08F3CD
:10035400AB4207D9ED1908F1FF3002D2AB4200F2EB
:10036400D1808046ED1AA3B2B5FBF2F002FB105522
:1003740043EA05440CFB00FCA44507D9E41900F149
:10038400FF3302D2A44500F2B8801846A4EB0C0453
:1003940040EA08409DE731463046BDE8F087CEF19B
:1003A400200405FA0EF307FA0EF720FA04F83A0CC3
:1003B40025FA04F448EA0308B4FBF2F14FEA1845BD
:1003C40002FB11441FFA87FC45EA044501FB0CF3C8
:1003D400AB4200FA0EF409D9ED1901F1FF3080F0B7
:1003E4008A80AB4240F2878002393D44EB1A1FFAFF
:1003F40088F5B3FBF2F002FB103345EA034500FB3A
:100404000CF3AB4207D9ED1900F1FF386FD2AB42C0
:100414006DD902383D44EB1A40EA01418FE7C1F13E
:10042400200722FA07F88B4005FA01F448EA03038F
:1004340020FA07FE4FEA134CFD404EEA040EB5FBCA
:10044400FCF94FEA1E440CFB19551FFA83F844EAE1
:10045400054509FB08F4AC4202FA01F200FA01FA7C
:1004640008D9ED1809F1FF3043D2AC4241D9A9F1C2
:1004740002091D442D1B1FFA8EFEB5FBFCF00CFB7C
:1004840010554EEA054400FB08F8A04507D9E418C6
:1004940000F1FF3529D2A04527D902381C4440EA8F
:1004A4000940A4EB0804A0FB02894C45C6464D460E
:1004B40015D312D056B1BAEB0E0364EB050404FA5B
:1004C40007F7CB401F43CC40376074600021BDE880
:1004D400F0871846F8E69046E0E6C245EAD2B8EB63
:1004E400020E69EB03050138E4E72846D7E74046E6
:1004F40091E78146BEE7014678E702383C4445E788
:10050400084608E7A8F102083D442BE7704700BFFE
:1005140038B50E4A0E4B054618784FF47A73B3FB80
:10052400F0F31068B0FBF3F000F0A8F8044658B9F3
:100534000F2D09D8024629464FF0FF3000F05EF82F
:10054400044B20461D6038BD012038BD0800002042
:10055400000000200400002008B50B4B1A6842F488
:1005640000721A601A6842F480621A601A6842F4CF
:1005740080721A60032000F02FF80020FFF7C8FFF4
:1005840001F066F8002008BD003C0240034A044B19
:1005940011681B780B441360704700BF28000020CB
:1005A40000000020014B1868704700BF280000209D
:1005B40038B50446FFF7F6FF631C1CBF054B1B78D8
:1005C400054618BFE418FFF7EDFF401B8442FAD834
:1005D40038BD00BF00000020074AD36823F4E0635D
:1005E4001B041B0C43F0BF63000243F4003300F40C
:1005F400E0600343D360704700ED00E0174B30B573
:10060400DC68C4F30224C4F10703251D042B28BFAE
:100614000423062D4FF0010505FA03F303F1FF331C
:100624008CBF033C00241940A14005FA04F4013CAA
:100634002240002842EA01024FEA0212AFBF00F151
:10064400604000F00F00064BD2B2A5BF00F5614038
:10065400D2B21A5480F8002330BD00BF00ED00E090
:1006640014ED00E04209012300F01F0003FA00F03A
:10067400014B43F82200704700E100E00138B0F17B
:10068400807F0AD2064B074A5860F02182F8231073
:100694000020072298601A6070470120704700BF4D
:1006A40010E000E000ED00E0044B1A6804280CBFE1
:1006B40042F0040222F004021A60704710E000E0E5
:1006C400704708B5FFF7FCFF08BD00002DE9F04FA7
:1006D40085B00B68DFF8A081654ADFF8A09101932B
:1006E40000234FF0010E019C0EFA03FE0EEA0406ED
:1006F400B64540F0AA804C6824F01007022F16D1AA
:100704004FEAD30A00EB8A0A03F0070BDAF8205009
:100714004FEA8B0B4FF00F0C0CFA0BFC25EA0C0C78
:100724000D6905FA0BF545EA0C05CAF820504FEAA5
:10073400430A0325D0F800B005FA0AF5ED4304F0A6
:10074400030C0BEA050B0CFA0AFC013F4CEA0B0CF8
:10075400012FC0F800C011D8876807EA050BCF68DD
:1007640007FA0AFC4CEA0B078760476827EA0E0E73
:10077400C4F300179F4047EA0E074760C7683D402F
:100784008F6807FA0AF73D43C560E5005DD54FF071
:10079400000BCDF80CB0D8F84470364D47F48047C0
:1007A400C8F84470D8F8447007F480470397039F4F
:1007B40023F0030707F1804707F59C3703F0030C88
:1007C400D7F808A04FEA8C0C4FF00F0E0EFA0CFE6F
:1007D400A8422AEA0E0E3FD005F58065A8423DD016
:1007E40005F58065A8423BD005F58065A84239D05F
:1007F40005F58065A84237D0484537D005F5006532
:10080400A84214BF0725062505FA0CF545EA0E058E
:10081400BD601568F74314F4803F0CBF3D40354379
:100824001560556814F4003F0CBF3D4035435560D6
:10083400956814F4801F0CBF3D4035439560D5681E
:10084400A40254BF3D403543D5600133102B7FF4DF
:1008540048AF05B0BDE8F08F5D46D5E70125D3E785
:100864000225D1E70325CFE70425CDE70525CBE70E
:10087400003C0140000002400038024000140240E5
:1008840037B500230193184B184C1A6C42F0805270
:100894001A641B6C03F080530193019B144B0122D7
:1008A4001A60FFF77FFE05466368DA030BD5114B28
:1008B4000E4C01221A60FFF775FE054663689B0320
:1008C4000AD5002006E0FFF76DFE401BB0F57A7FE5
:1008D400EAD9032003B030BDFFF764FE401BB0F536
:1008E4007A7FEBD9F5E700BF003802400070004082
:1008F40040000E4244000E422DE9F0410D460446EC
:1009040010B90120BDE8F081444B1A6802F00F02CF
:100914008A4228D321688F072DD4C80740D43F4B7F
:100924001A6802F00F02954266D3226851076CD40C
:10093400130707D53A4A2169936823F4604343EACD
:10094400C103936000F078F8354B364A9B68C3F3D3
:100954000313D35CD840344B18600020FFF7D8FD54
:100964000020BDE8F081CAB21A701B6803F00F03BF
:100974009942C6D1CEE72A4B11F0040F1EBF9A68E4
:1009840042F4E0529A600E0742BF9A6842F4604211
:100994009A609A68A06822F0F00202439A60BCE769
:1009A40062681F4B012A1DD11B6813F4003FA8D0B5
:1009B4001B4EB36823F003031343B360FFF7F2FD48
:1009C40041F288380746B368626803F00C03B3EB5E
:1009D400820FA4D0FFF7E6FDC01B4045F3D90320E6
:1009E400BDE8F081911E01291B6802D813F0007F35
:1009F400DDE713F0020FDAE7EAB21A701B6803F0BE
:100A04000F039D427FF47DAF8FE70549E0688B6853
:100A140023F4E05303438B608AE700BF003C0240A9
:100A2400003802407418000808000020014B1868C0
:100A3400704700BF08000020204908B58B6803F008
:100A44000C03082B07D00C2B20D01D4A1D48042B67
:100A540018BF104608BD4A684B68496813F4800300
:100A640014BF18481648C1F3881118BF002302F0B8
:100A74003F02A1FB0001FFF7C3FB104B5B68C3F30C
:100A8400014301335B00B0FBF3F008BD4A684B68D7
:100A9400496813F4800314BF0A480948C1F3881154
:100AA40018BF002302F03F02A1FB0001FFF7A8FBDF
:100AB400024B5B68C3F30273E5E700BF00380240F2
:100AC4000024F40000127A0003682DE9F341DF07E3
:100AD400044610D423689E0767D423681A0700F1DC
:100AE400B28023685B0700F1D080A269002A40F03D
:100AF400398100201EE0974B9A6802F00C02042A08
:100B040010D09A6802F00C02082A02D15B685D02D8
:100B140008D4904B9A6802F00C020C2A0DD15A6842
:100B240050020AD58B4B1B689903D3D56368002BFD
:100B3400D0D1012002B0BDE8F0816268B2F5803FF7
:100B440011D11A6842F480321A60FFF72BFD814DEF
:100B540006462B689A03BDD4FFF724FD801B642846
:100B6400F7D90320E6E77B4DB2F5A02F2B6807D118
:100B740043F480232B602B6843F480332B60E4E739
:100B840023F480332B602B6823F480232B60002A0A
:100B9400DBD1FFF707FD06462B689B039AD5FFF7C9
:100BA40001FD801B6428F7D9DBE76A4B9A6812F0D1
:100BB4000C0F10D09A6802F00C02082A02D15B686C
:100BC4005F0208D5634A936803F00C030C2B11D120
:100BD40053685E020ED45F4B1A68950702D5E2682B
:100BE400012AA6D11A68216922F0F80242EAC10258
:100BF4001A6072E7E268584BB2B101221A60FFF73B
:100C0400D1FC544D06462B68980707D52B682269FA
:100C140023F0F80343EAC2032B605EE7FFF7C2FC4C
:100C2400801B0228EFD99CE71A60FFF7BBFC494DF3
:100C340006462B6899077FF550AFFFF7B3FC801B7E
:100C44000228F6D98DE76269444B7AB101221A6011
:100C5400FFF7A8FC3F4D06466B6F9F073FF541AF7A
:100C6400FFF7A0FC801B0228F6D97AE71A60FFF789
:100C740099FC384D06466B6F98077FF532AFFFF746
:100C840091FC801B0228F6D96BE7324B1A6C12F0E8
:100C9400805228D101921A6C42F080521A641B6C63
:100CA40003F080530193019B01262D4D2B68D90538
:100CB4001BD5A368274D012B27D12B6F43F00103CC
:100CC4002B67FFF76FFC234D074641F288382B6FE3
:100CD4009B0739D5002E3FF408AF1E4A136C23F04E
:100CE4008053136401E70026DFE72B6843F4807325
:100CF4002B60FFF757FC07462B68DA05D9D4FFF7BA
:100D040051FCC01B0228F7D92BE7052B04D12B6F0C
:100D140043F004032B67D0E72A6F22F001022A670D
:100D24002A6F22F004022A67002BCAD1FFF73AFC8B
:100D340041F2883807462B6F9807CBD5FFF732FC72
:100D4400C01B4045F7D90CE7FFF72CFCC01B4045FE
:100D5400BDD906E70038024000004742800E4742F2
:100D640000700040234DAB6803F00C03082B3FF4E4
:100D7400E0AE214E0023022A33602DD1FFF712FC8E
:100D840007462B68990121D4226AE3691343626AF6
:100D940043EA8213E26A43EA0263226B43EA027380
:100DA400A26A144C5208013A43EA02436B600123DD
:100DB4003360FFF7F7FB054623689A013FF599AEC8
:100DC400FFF7F0FB401B0228F6D9CAE6FFF7EAFB5F
:100DD400C01B0228D5D9C4E6FFF7E4FB04462B6800
:100DE4009B017FF586AEFFF7DDFB001B0228F6D9D9
:100DF400B7E600BF0038024060004742036A23F0B0
:100E040001030362036A426870B584690D6824F0C3
:100E1400730425438C6823F0020323430C4CA04243
:100E240009D004F58064A04205D042604A68856117
:100E34004263036270BDCC688E6923F008032343C8
:100E44004C6922F44072344323F004032243ECE758
:100E540000000140036A23F480730362036A42685A
:100E640070B5C4690D6824F0730425438C6823F4B9
:100E7400007343EA04230E4CA04209D004F58064B5
:100E8400A04205D042604A68C561C263036270BD76
:100E9400CC688E6923F4006343EA04234C6922F48A
:100EA4004052344323F4806342EA0412EAE700BF69
:100EB40000000140036A23F48053036230B5046ADE
:100EC4004368C2690D6822F4E64242EA05228D684D
:100ED40024F4005444EA0534094DA84209D005F528
:100EE4008065A84205D043604B68C2610364046214
:100EF40030BD4D6923F4804343EA8513F3E700BF13
:100F040000000140704790F83830012B70B54FF065
:100F140002031CD080F839300368012280F838209D
:100F24009A6822F47F4222F077029A600A68402A83
:100F340079D019D8102A00F093800AD8002A00F03A
:100F44008980012380F83930002380F8383018462E
:100F540070BD202A00F08A80302AF2D19A6822F0EB
:100F6400700242F0370236E0702A36D01BD8502A7D
:100F740042D0602AE5D11C6A4D68CE6824F0100482
:100F84001C6299691A6A21F4704122F0A00242EAB3
:100F9400051241EA063199611A629A6822F07002D8
:100FA40042F0670217E0B2F5805F11D0B2F5005F3E
:100FB400C7D18A684D689C68C9682A4324F47F4471
:100FC40042EA012222439A609A6842F4804202E093
:100FD4009A6822F007029A60B3E78A684D689C68B1
:100FE400C9682A4324F47F4442EA012222439A60D6
:100FF4009A6842F07702EEE74C68CE68196A1D6A77
:1010040025F001051D629A6921F00A0122F0F0021F
:1010140042EA061221439A6119629A6822F0700228
:1010240042F05702D7E74C68CE68196A1D6A25F06A
:1010340001051D629A6921F00A0122F0F00242EAD8
:10104400061221439A6119629A6822F0700242F0F2
:101054004702C0E79A6822F0700242F00702BAE73A
:101064009A6822F0700242F01702B4E79A6822F0FC
:10107400700242F02702AEE770477047704770472E
:10108400704703681A69910710B504460ED5DA68EB
:1010940092070BD56FF002021A619B6901229B072C
:1010A400027677D0FFF7EAFF0023237623681A69D4
:1010B400500710D5DA6851070DD56FF004021A6194
:1010C4009B69022213F4407F2276204668D0FFF702
:1010D400D5FF0023237623681A6912070FD5DA682F
:1010E40010070CD56FF008021A61DB690422990716
:1010F400227620465AD0FFF7C1FF002323762368C7
:101104001A69D20610D5DA68D0060DD56FF0100230
:101114001A61DB69082213F4407F227620464BD003
:10112400FFF7ACFF0023237623681A69D10708D59B
:10113400DA68D20705D56FF001021A612046FFF77D
:101144009BFF23681A69100608D5DA68110605D5CD
:101154006FF080021A61204600F0A9F923681A6929
:10116400520608D5DA68500605D56FF040021A61B8
:101174002046FFF785FF23681A69910622D5DA68AD
:1011840092061FD56FF0200220461A61BDE8104078
:1011940000F08CB9FFF771FF2046FFF770FF83E77B
:1011A400FFF76BFF2046FFF76AFF92E7FFF765FF43
:1011B4002046FFF764FFA0E7FFF75FFF2046FFF735
:1011C4005EFFAFE710BD00002E4A0368904212D0C4
:1011D400B0F1804F0FD0A2F57C4290420BD002F5C3
:1011E4008062904207D002F58062904203D002F5FB
:1011F400784290421DD14A6823F070031343214A78
:10120400904204D1CA6823F44073134328E0B0F138
:10121400804FF7D01C4A9042F4D002F5806290428D
:10122400F0D002F580629042ECD002F57842904210
:10123400E8D0164A9042E5D002F580629042E1D0AF
:1012440002F580629042DDD0A2F598329042D9D066
:1012540002F580629042D5D002F580629042D1D0EE
:1012640003608B68C3620B688362064B984206D0A6
:1012740003F58063984202D00123436170470B69F0
:101284000363F9E70000014000040040004001400E
:1012940010B50446A0B190F8393003F0FF021BB931
:1012A40080F8382000F01CFA022384F839302068D2
:1012B400211DFFF789FF012384F83930002010BD78
:1012C400012010BD10B50446A0B190F8393003F0E8
:1012D400FF021BB980F83820FFF714FE022384F8BC
:1012E40039302068211DFFF76FFF012384F839305E
:1012F400002010BD012010BD036A23F01003036217
:10130400036A426870B584690D6824F4E64444EACB
:1013140005258C6823F0200343EA04130D4CA042F6
:1013240009D004F58064A04205D042604A68856112
:101334008263036270BDCC688E6923F0800343EA44
:1013440004134C6922F44062344323F0400342EA1C
:101354008402EAE70000014038B590F83830012BE8
:1013640004464FF0020025D0012384F8383084F875
:1013740039000C2A18D8DFE802F0071717171E17D0
:1013840017172F17171740002068FFF737FD23683A
:1013940009699A6942F008029A619A6922F0040282
:1013A4009A619A690A439A610123002084F83930CA
:1013B40084F8380038BD2068FFF79EFF2368096968
:1013C4009A6942F400629A619A6922F480629A618D
:1013D4009A6942EA0122E6E72068FFF73BFD2368A9
:1013E4000969DA6942F00802DA61DA6922F0040272
:1013F400DA61DA690A43DA61D6E72068FFF75AFD51
:1014040023680969DA6942F40062DA61DA6922F46C
:101414008062DA61DA6942EA0122ECE7036A10B514
:1014240001248C4023EA04030362036A8A401A43BA
:10143400026210BD10B5044601220068FFF7EEFFFA
:101444002368084A934203D002F58062934203D191
:101454005A6C42F400425A641A6842F001021A605B
:10146400002010BD0000014090F83830012B10B569
:101474004FF0020318D080F8393003680C685A68BA
:10148400496822F070025A605A6822435A609A6886
:1014940022F080029A609A680A439A60012380F8D5
:1014A4003930002380F83830184610BD7047704733
:1014B40030B595B02A4B002100911A6C42F080524D
:1014C4001A641B6C03F080530093009B254B01911D
:1014D4001A6842F440421A601B6803F440430193C3
:1014E400019B012307934FF4803308934FF4800347
:1014F40002240E930425B42307A80D940F9510938A
:10150400119412941394FFF7DFFA00B1FEE7FFF78A
:10151400B7F900B1FEE70F2302934FF4C0530490D0
:10152400059305214FF4805302A803940693FFF713
:10153400E3F9044600B1FEE7FFF778FA4FF47A7353
:10154400B0FBF3F0FFF79AF82846FFF7ADF8224610
:1015540021464FF0FF30FFF751F815B030BD00BF02
:10156400003802400070004000B591B0FEF7F4FF6F
:10157400FFF79EFF344B354C00220192196B41F06A
:1015840080011963196B01F08001019101990292A4
:10159400196B41F0010119631B6BA26003F0010395
:1015A4000293029B22614FF0804140F2833384E82E
:1015B4000A00204640F2E733E360FFF769FE254660
:1015C40000B1FEE710A94FF4805341F82C3D2046AA
:1015D400FFF799FC00B1FEE72046FFF773FE00B168
:1015E400FEE70390049003A92046FFF73DFF02465F
:1015F40000B1FEE760230A900B900D9009A92046E4
:101604000993FFF7A9FE044600B1FEE7284600F05F
:1016140083F821462846FFF70DFF172645242B683B
:101624004FF4FA605E63FEF7C3FF2B684FF4FA6071
:101634005C63FEF7BDFF2B6874225A634FF4FA60B3
:10164400FEF7B6FFEBE700BF003802402C00002095
:1016540013B5224B002400945A6C42F480425A641D
:101664005A6C02F480420092009A01941A6C42F07F
:1016740080521A641B6C03F0805301930320019B76
:10168400FEF7AAFF224621466FF00B00FEF7B6FFD5
:10169400224621466FF00A00FEF7B0FF224621469B
:1016A4006FF00900FEF7AAFF224621466FF00400FE
:1016B400FEF7A4FF224621466FF00300FEF79EFFCB
:1016C400224621466FF00100FEF798FF224621468C
:1016D4004FF0FF30FEF792FF02B010BD0038024019
:1016E4000368B3F1804F07B513D1002203F50E331D
:1016F4000192196C41F0010119641B6C03F00103A0
:1017040001931C201146019BFEF778FF1C20FEF775
:10171400A9FF03B05DF804FB7FB50368B3F1804F04
:101724000BD102220123029201A900220448019351
:10173400039204920593FEF7C9FF07B05DF804FB1A
:10174400000002407047FEE7FEE7FEE7FEE7704751
:101754007047704708B5FEF719FFBDE80840FEF76B
:10176400B0BF00000148FFF78CBC00BF2C00002074
:101774000F49D1F8883043F47003C1F888300D4B19
:101784001A68002042F001021A6098601A6822F078
:10179400847222F480321A60074A5A601A6822F46A
:1017A40080221A60D8604FF000638B60704700BFDE
:1017B40000ED00E00038024010300024DFF834D09F
:1017C400002103E00C4B5B58435004310B480C4B95
:1017D40042189A42F6D30B4A02E0002342F8043B33
:1017E400094B9A42F9D3FFF7C3FF00F011F8FFF752
:1017F400BBFE70470000022094180008000000207F
:101804000C0000200C00002068000020FEE700000F
:1018140070B50D4E0D4CA41BA4100025A54209D192
:101824000B4E0C4C00F018F8A41BA4100025A54284
:1018340005D170BD56F8253098470135EEE756F8C6
:10184400253098470135F2E78C1800088C180008F9
:101854008C18000890180008F8B500BFF8BC08BC44
:101864009E467047F8B500BFF8BC08BC9E4670475A
:10187400000000000000000001020304060708093C
:08188400B0E9FF7F0100000044
:04188C00E901000866
:04189000C501000886
:0C18940001000000100000000024F4001F
:04000005080017C117
:00000001FF
